:020000022000DC
:1060000000000420756302005D6302005F6302000C
:106010006163020063630200656302000000000028
:1060200000000000000000000000000067630200A4
:1060300069630200000000006B6302006D630200F0
:10604000758002006F630200D982020095C50200CC
:10605000EDC302006F6302002D810200457A020049
:106060006F630200618D0200718D02006F63020098
:106070006F6302006F6302006F6302006F630200D0
:106080006F630200296E02006F6302006F630200FB
:10609000C56E02006F63020031BE02006F63020032
:1060A0006F6302006F6302006F6302006F630200A0
:1060B000D58C02006F6302000000000000000000A9
:1060C0006F630200E58C0200F58C02006F63020032
:1060D0006F6302006F6302006F6302006F63020070
:1060E0006F6302006F6302006F6302000000000034
:1060F00000000000058D0200000000006F63020038
:10610000000000000000000000000000000000008F
:10611000000000000000000000000000000000007F
:10612000000000000000000000000000000000006F
:10613000000000000000000000000000000000005F
:10614000000000000000000000000000000000004F
:10615000000000000000000000000000000000003F
:10616000000000000000000000000000000000002F
:10617000000000000000000000000000000000001F
:10618000000000000000000000000000000000000F
:1061900000000000000000000000000000000000FF
:1061A00000000000000000000000000000000000EF
:1061B00000000000000000000000000000000000DF
:1061C00000000000000000000000000000000000CF
:1061D00000000000000000000000000000000000BF
:1061E00000000000000000000000000000000000AF
:1061F000000000000000000000000000000000009F
:10620000354936480A1A02D0072291438D4634494F
:1062100034480A1A06D00722914381F309880222E2
:1062200082F3148830483149314A00F044F831484B
:106230003149324A00F03FF831483249324A00F0E1
:106240003AF832483249334A00F035F83248334997
:10625000334A00F030F833483349344A00F02BF821
:1062600033483449344A00F026F83448344900228F
:1062700000F02CF833483449002200F027F8334866
:106280003349091A082902DB002202604160314AC1
:1062900090471F481F49884205D00268043003B464
:1062A000904703BCF7E700208646EC46002000211B
:1062B000294A9047FEE7884207D0521A05D0037852
:1062C00001300B700131013AF9D17047884202D098
:1062D00002700130FAE770470000042000E003205C
:1062E000000004200000042078A30300F82500200B
:1062F000A0260020D4630200D46302001CD6020052
:1063000078A30300F8250020F825002020D70200FC
:1063100020D7020020D7020020D7020020D7020099
:1063200020D7020020D7020020D7020078A3030064
:1063300020A40300A0260020A0260020A0260020E4
:10634000CCEE0020CCEE0020D0EE0020D0EE0020DD
:10635000D00E01209D630200FDAB0200FEE7FEE7C8
:10636000FEE7FEE7FEE7FEE7FEE7FEE7FEE7FEE705
:10637000704700BF1048804710484FF0070188431E
:1063800085460F4880470F48016841F4700101605D
:10639000BFF34F8FBFF36F8FFFF732BF0A480B4930
:1063A0000B4A884207D0521A05D0037801300B708F
:1063B0000131013AF9D170477163020000000420F5
:1063C000D17B020088ED00E020D70200F8250020F4
:0463D000F82500208C
:1063D40000487047C4EE0020F0B595B01C46164640
:1063E40008460D4601F07CFA1A9B0D93CDE908642A
:1063F40000242346082205A928460A948DF82C4037
:106404000C9401F08AFA079B0293069B03939DF870
:1064140014308DF8114003F00302012A1DD1BDF898
:106424001440059EC3F3C203C4F383148DF81030E3
:10643400A20008230EA9284601F06FFAC6F3952698
:1064440008AB0093224602AB0EA9304600F082FB53
:10645400284601F049FA15B0F0BD022AF8D1BDF87A
:106464001640C3F3C203A4098DF810300827082C82
:10647400264628BF08263B4632460EA9284601F088
:106484004CFAA41B08AB02AA31460EA8374400F00C
:10649400C5FB002CEBD1DBE7014B01221A707047DE
:1064A400E12600207047000070B50E4D06460FCD62
:1064B40088B06C460FC495E80F00002E84E80F00E6
:1064C4004FF00603084A0948009308BF00226946B2
:1064D40001F04CFD08B100F0F7FB054B1E7008B04D
:1064E40070BD00BF20D702009D640200F825002083
:1064F400A026002007B5044B0093044A4023FFF76D
:106504006BFF03B05DF804FB15650200A1260020B3
:1065140038B50D4B0D4D002018700D4804782D5DD5
:10652400D2B21C4665B1043002F046FB08B100F05B
:10653400CBFB084B1A7812B12378002BFBD038BD63
:106544000C3002F017F9F1E7E12600206C2D002051
:10655400F8250020A026002008B50848084A03783A
:10656400D35C3BB1043002F0D1FA0020BDE808400E
:10657400FFF79ABF0C3002F0A7F8F6E7F8250020E1
:106584006C2D0020037813F0040216D003F00303EB
:10659400012B03D0022B09D0012070470A68008820
:1065A4000232C0F3831002440A60F5E70B684288A4
:1065B400023303EB92130B60EEE7104670470000C2
:1065C4002DE9F04F87B000230446851C0DF1070028
:1065D4000F4690468DF8073000F064FE4548066883
:1065E4003E60D0E90132134401339B1B824600F222
:1065F4001C4600F5836900F21447AB421BD300220A
:10660400B8F1000F70D0052363F3070264F3891215
:10661400DAF80010DAF808309DF807000B4003336D
:106624000D444AF82320CAF8005000F05FFE012010
:1066340007B0BDE8F08F0121304600F0B4FE4846B3
:1066440000F0C7FE384600F0C4FEDAF80400DAF8B9
:1066540008B0029000EA0B0003300AEB800002A9A4
:10666400FFF790FF029B50BB0BEA03020AEB820286
:1066740003F1020CD2680392013303EA0B0B0AEB19
:106684008B0B02F00302012ACDF808C0DBF80C10D2
:1066940022D0022A16D08346384600F09DFE10B15F
:1066A400029BCAF804305946304600F07CFEDAE911
:1066B40001231344DAF8002001339B1A9DE70BEA07
:1066C4000300C9E7BDF80E309B0903334FEA114BB1
:1066D4000CEB93030293DFE7BDF80C30C3F3831391
:1066E4004FEA114B6344F5E7062363F3070264F3AF
:1066F4009F528DE7B427002030B50A4C71B10A4A85
:106704000A49121BD20800239A4201D1002030BD4D
:1067140031F82350854202D00133F5E7034654F89B
:106724003300F4E780D6020010D70200F8250020D9
:10673400094B013903EBC000032909D8DFE801F054
:106744000A020406042070470079704740797047B4
:10675400002070470220704780D60200034BD3E923
:106764000030C31A58425841704700BFB427002074
:106774002DE9F04387B0FFF7F1FF0646002840F00B
:10678400FB807E4DC5F81804BFF34F8F6868AC6872
:1067940002902040033005EB800002A9FFF7F2FECF
:1067A400029B18B1D5F81824002A5FD004EA03022A
:1067B400991C013305EB8202234005EB8303D26865
:1067C400DB68049302F00303022B0392029162D16B
:1067D400BDF80E306A484FEA9318B8F1500FC1461D
:1067E40028BF4FF0500969F38F1309F10801ADF880
:1067F4000E3001F046F80746002800F0A88001F0AA
:106804006FF803A900230822384601F07CF80299A6
:1068140024EA01060136B600B14535D95FFA89F993
:106824007EB3F6B2A9EB0609214003315FFA89F47D
:10683400B146544E05EB810108234A46384601F01F
:1068440062F836B109F1080322463146384601F0B0
:106854005AF8029B08F1030803EB98030293D5F856
:106864001834002B4BD1D5F810445BE02A689A42C7
:1068740004D86A60304607B0BDE8F08304EA030038
:1068840088E740493446D7E72140033108234A4684
:1068940005EB8101DAE7012B59D1BDF80C303848FA
:1068A400C3F38311062928BF062161F3891302313A
:1068B4008900ADF80C3000F0E4FF0746002846D00C
:1068C40001F00EF80023082203A9384601F01BF852
:1068D4000026BDF80C20C2F38312B300964203F1E4
:1068E4000803BCD202994A1C21400331029205EBF1
:1068F40081010422384601F006F80136E9E73846FA
:1069040000F0F2FFFFF72AFF80F00100C6B2B1E702
:10691400E3685B7923B1236839461B6820469847AE
:10692400E3681C68002CF3D1384600F0DDFF0DF15C
:1069340007008DF8074000F0B5FCD5F818340BB902
:10694400029B6B609DF8070000F0D0FCDAE7D5F8F5
:10695400104454B90C4B0D480D49C01AC00800042A
:1069640040F0020000F06EF8CCE7236820469B68F4
:106974009847E3681C68ECE700267BE7B42700200F
:106984006CD60200C027002080D60200D8D60200B0
:106994005DD702002DE9F74F284C80460F469246FA
:1069A40001A9012218469B46D4F80890FFF708FE77
:1069B40080B3019D0026A91C5E4506EB010233D17C
:1069C40000211F4800F0C4FC80F310006A1C02EA96
:1069D400090204EB8202000405EA0903033340EAD6
:1069E4001840D06014F8232068F3C50204F823206B
:1069F40034F8232066F3891224F8232054F8232042
:106A040067F39F2244F8232002F0F80242F00102C7
:106A140004F8232094F820341BB1FFF7A9FE0028C2
:106A2400FBD103B0BDE8F08F09EA020204EB820255
:106A34005AF82630D3600136BEE700BFB4270020E1
:106A4400D02B002000231A46FFF7A4BF07B501236B
:106A5400019201AAFFF79EFF03B05DF804FB07B59E
:106A6400CDE9002302236A46FFF794FF03B05DF8E3
:106A740004FB0000094A38B50123D2F8104482F817
:106A840020341D4604B938BDE3685D71236820468F
:106A94005B689847E3681C68F4E700BFB4270020EC
:106AA400037A052B10B50C460FD0437A23B1084A5C
:106AB4000849204600F0DCFC0749204600F0D8FCD9
:106AC4002046BDE8104000F0C8BC002AF8D0F3E727
:106AD400A7D70200ACD70200CCD70200C38873B595
:106AE40004460D4633B1144A00921449144A284608
:106AF40000F0BEFC217A05291CD0637A4BB1A08832
:106B0400FFF716FE0F4B104953F82020284600F0DB
:106B1400AFFC227A0D4BA08853F822600021FFF7C6
:106B2400EBFD0B4903463246284602B0BDE87040EF
:106B340000F09EBC02B070BDA7D70200B7D7020018
:106B4400AFD7020074D70200ACD70200DCD7020032
:106B5400CFD702002DE9F04385B01F460C9D0023DA
:106B640006460C46904695F80C902B7329463846F9
:106B7400FFF7B4FFB8F1060F09D8DFE808F00412F4
:106B8400181F283340003146284600F071FC0022CB
:106B940029463846FFF784FF85F80C9005B0BDE818
:106BA400F08322683146284600F062FCEFE7D4E91E
:106BB40000233146284600F05BFCE8E7A368009315
:106BC4003146D4E90023284600F052FCDFE7E368AD
:106BD4000193A36800933146D4E90023284600F0CA
:106BE40047FCD4E723690293E3680193A368009305
:106BF4003146D4E90023284600F03AFCC7E763692C
:106C0400039323690293E3680193A36800933146D5
:106C1400D4E90023284600F02BFCB8E708292DE925
:106C2400F84F80460E4617461C4636D8002593F882
:106C34000C901D7319461046FFF750FFDFF87CA037
:106C4400DFF87CB0AE422AD918F805205946204610
:106C540000F00EFC0135082DF4D11649DFF864B0BC
:106C6400204600F005FC0025AE421DD918F805A009
:106C7400504605F0FBFE002814BF52462E2259460A
:106C8400204600F0F5FB0135082DEDD10122214607
:106C94003846FFF705FF84F80C90BDE8F88F51469D
:106CA400204600F0E5FBD5E70349204600F0E0FB71
:106CB400E9E700BFA2D70200A0D702009ED70200D6
:106CC40098D70200A4D702001FB50021039001AA9F
:106CD40044F20100CDE9011100F004F805B05DF8BB
:106CE40004FB000010B572B6FFF7C4FEFFF740FDC9
:106CF4000028FBD1104B114C1149E41AE408240478
:106D040044F00100FFF79EFE0E4B1B68DB0700D525
:106D140000BE0D4944F00200FFF794FEBFF34F8F0D
:106D24000A490B4BCA6802F4E0621343CB60BFF319
:106D34004F8F00BFFDE700BF80D60200D8D6020007
:106D44003BD80200F0ED00E047D8020000ED00E07F
:106D54000400FA05094A537891780133DBB2994269
:106D640008BF0023117899421FBF0370507818237D
:106D740003FB002014BF043000207047D82B0020F0
:106D840073B5054600240DF107000E468DF8074043
:106D940000F088FA0DF10600FFF7DCFF90B10670F1
:106DA400094B9DF8062045605A709DF8070000F0D5
:106DB4009DFA24B9054B4FF48012C3F800212046F4
:106DC40002B070BD0424F0E7D82B002000E100E0FD
:106DD400024B4FF43C6043F00103184760D80200B3
:106DE40038B50C4B0C4C4FF40032C3F8802001250D
:106DF4004FF48033C4F84833C4F808336560FFF7B0
:106E0400E7FF064BA56000241C60FFF7E1FF044B7D
:106E14001C7038BD00E100E000100140F42C00209B
:106E2400E52C0020F8B51F4B1F491B680025C1F84D
:106E34004051C1F84451C1F84851C1F84C51C1F80E
:106E44000051C1F804514BB3D1F8044517490968FE
:106E5400641A24F07F442F461A68A24209D8A41A5F
:106E640015441A7CDE691AB11F74D3E905209047D2
:106E7400AEB90F4A0F4B11781B788B4205D1013301
:106E8400DBB2022B08BF0023137012780A4B43F8BD
:106E940022500A4B4FF48012C3F80021F8BD334648
:106EA400DAE700BFF82C002000100140F42C002089
:106EB400F12C0020F02C0020E82C002000E100E060
:106EC4002DE9F04FA04AA14913780978A04D9942C1
:106ED40085B03CD00133DBB2022B08BF0023137012
:106EE4009C4912789C4B0F6853F822003B1823F0FE
:106EF4007F4300220B602B6816461446944613B950
:106F040042B12B6006E0196881420ED902B12B60B0
:106F1400091A19604FF001082B68DFF844A20193A5
:106F24000027BEB9DFF840B266E0401A0C44D968C5
:106F3400C3F800C0D3F81CE031B13A1922F07F4203
:106F4400C3E90121DE611E4601227346D7E700260C
:106F5400B046E1E73446F6697E4A63681268DFF8B2
:106F64000CC2A068991A21F07F41614500F2A58006
:106F740001442160012222742A680023C4E90133F8
:106F8400E361002A40F0A2802C60CAE75A1C9BF8F7
:106F94000210D2B291428BF8002004BF00228BF879
:106FA4000020182202FB03B31A799C68022A1CD021
:106FB400032A12D0012A1FD1207CE8B9D3E9031295
:106FC400A2605A69E2609A69644BA2611B78002B43
:106FD4000CBF0B4603466360BEE700222B681146D4
:106FE400002B66D142B12B6006E029680A46894627
:106FF400002A59D1002323749BF800309BF8012008
:107004009A42C3D12B682FB9019A9A4202D1B8F19E
:10701400000F43D0002B73D0D3F800A0504D4D4B3C
:10702400D5F804751C68DFF848813E1B98F80030D9
:1070340026F07F4603369BB94FF48033C5F84433BA
:10704400C5F80433474B4FF400324FF00109C3F83D
:1070540080211A60C5F80090FFF7BAFE88F8009006
:10706400B2452CBF5444A41924F07F44C5F84045CC
:10707400D5F80435DB1B23F07F43E41B033324F0F2
:107084007F44A3420AD9D5F80435C5F84035FFF743
:107094009FFE344B4FF40032C3F800212F4B0022E3
:1070A4001A7005B0BDE8F08F94422CD09146D26995
:1070B4009EE719740122DB6992E7D31A23F07F4318
:1070C400834234BFC31A0023236053E72168136843
:1070D400994213D8591A1160E26155E7091AD8691F
:1070E4001A4638B1034618688842F7D3401A186024
:1070F400184613462160E061DC6112E71346F2E7AB
:10710400FFF76EFECAE74C4511D1CB692B6073B90A
:10711400DFF840E00120CDE90212CAF80800CEF8F9
:1071240000300E4B1870FFF753FEDDE902121368AE
:10713400D269C9F81C2012B11068034413602B688B
:10714400994218BF012755E7F02C0020F12C0020AC
:10715400F82C0020F42C0020E82C0020E42C002043
:107164000010014000E100E0D82B0020FEFF7F006A
:10717400E52C002008B5FFF733FE104B00200B224E
:1071840018809A700E4B18600E4B18700E4B1870C6
:107194000E4B4FF48012C021C3F8802183F81413DE
:1071A4001A6002F18042A2F56F22C2F8080583F842
:1071B4001113074BD2F804251A6008BDD82B002000
:1071C400F82C0020F02C0020F12C002000E100E03D
:1071D400F42C0020074B9B784BB132B128B10368E3
:1071E400187C20B959745A617047072070470820E9
:1071F400704700BFD82B00202DE9F7431E4FBB7802
:1072040005460E469046A3B398B304292FD9436983
:107214007BB3437C0024012B0DF107000CBF89468E
:10722400A1468DF8074000F03DF80DF10600FFF788
:1072340091FDD0B101230370104B4560D3F80435A0
:10724400C0E90498C0E902369DF806307B709DF8C9
:10725400070000F04BF824B9094B4FF48012C3F82F
:107264000021204603B0BDE8F0830424EFE707249F
:10727400F7E70824F5E700BFD82B002000100140F1
:1072840000E100E0064A92783AB130B1426922B195
:10729400002202740221FFF773BD0820704700BF6B
:1072A400D82B002070B5EFF3108672B60C4A9468A0
:1072B40001239CB993600B4B0B4DD3F880102940EC
:1072C4001160C3F88050D3F8841051604FF0FF323E
:1072D400C3F88420047006B962B670BD0370FAE77F
:1072E400FC2C002000E100E0FC06FFBD084B9A687E
:1072F40010B55AB150B9EFF3108172B6054A1C6843
:1073040014605C685460986001B962B610BD00BF37
:10731400FC2C002000E100E001F01F024B090121D8
:10732400914000EB830000F01DB801F01F0301221F
:107334009A404B0900EB8300D14300F029B84B0974
:1073440001F01F0150F82300C84000F0010070470D
:1073540050E8002F0B4640E8003C9CF0000FF7D1AA
:107364001046704750E8003F43EA010240E8002C11
:107374009CF0000FF6D11046704750E8002F02EA47
:10738400010340E8003C9CF0000FF6D11046704722
:1073940050E8003F03EA010240E8002C9CF0000F93
:1073A400F6D11046704750E8003F03EB010240E875
:1073B400002C9CF0000FF6D11046704750E8003FB7
:1073C400A3EB010240E8002C9CF0000FF6D110461C
:1073D40070470121FFF7C6BF0021FFF7CEBF37B5C5
:1073E400054600240DF107008DF80740FFF75AFF0A
:1073F4002A686B68116899420ED9481E106011F80A
:10740400014CEB68298A01FB0434AB6811791B1A1F
:10741400DBB2994238BF13719DF80700FFF766FF8E
:10742400204603B030BD37B5054600230DF10700F3
:107434000C468DF80730FFF735FF2A681368591C8E
:107444001160E968641A298AB4FBF1F41C709DF890
:107454000700FFF74BFF03B030BD826810B5044648
:107464002AB143690168006998470023A36010BDED
:107474000EB403B5039921B104AB01AA019300F042
:107484006DF802B05DF804EB03B07047826830B465
:107494000468551C8560A154D0E901329A4202D394
:1074A40030BCFFF7DABF30BC704700002DE9F84F5D
:1074B4009946DDE90A431746824688460A4601266C
:1074C400BA420FD24E4538BF4E4613F0010B01D1DC
:1074D40064B900240125B9F1010F1AD909F1FF3962
:1074E4007D43F8E7B2FBF7F20136E9E79B070ED5D7
:1074F400B9F1000F0CBF30252025A642EAD2013C89
:1075040029465046FFF7C2FF002CF6D1E1E72025BB
:10751400F3E7B8FBF5F39F42E2D9DFF83C90B8FB00
:10752400F5F3504619F8031005FB1388FFF7AEFF77
:10753400B5FBF7F3BD4207D2BBF1000F02D00CB18B
:10754400A64203D3BDE8F88F1D46E8E72021504644
:10755400013CFFF79BFFF2E766D802002DE9F74FE5
:10756400054617468846002900F0318118F8011BAA
:1075740049B92B7B002B00F02A81284603B0BDE8D3
:10758400F04FFFF76ABF252940F0C080002698F825
:1075940000302D2B424608F1010823D0302B24D093
:1075A4002B2B25D000242A2B02F1010123D13B6887
:1075B4001A1D1B683A601C440A4613782E2B26D1E8
:1075C40001324FF0000A104610F8011BA1F1300CF3
:1075D400BCF1090F1DD80A2303FB0A13A3F1300AD7
:1075E4000246F0E746F00106D1E746F00206CEE790
:1075F40046F00406CBE711F8013CA3F1300009285A
:10760400DBD80A2202FB0434303C0A46CBE74FF0B5
:10761400000A12F8011B01F0FB0068289046F8D01C
:1076240069290ED04AD8582964D006D825296DD0A6
:1076340098F80030002B99D19BE7632962D0642924
:10764400F6D13A68D2F80090111D89EAE9723960DE
:10765400A2EBE9724FF0010B092A5BDCD34538BF7A
:10766400D3462CB1B9F1000F01DB710700D5013C01
:10767400B20702D5BAF1000F04D0F30702D4002CEC
:107684004ED10024B9F1000F52DAC9F100092D21BD
:107694002846FFF7FBFE06F00302022A05D1BAF1E1
:1076A400000F02D1002C47D10024CDE900465346F7
:1076B4000A2249462846FFF7F9FEB9E773294CD058
:1076C40014D87029B4D13B681A1D3A603021284679
:1076D4001C68FFF7DBFE78212846FFF7D7FE00225F
:1076E4000823CDE9003221461022E3E775292BD087
:1076F40078299DD139680A1D3A60CDE90046534680
:10770400102228E03B681A1D19783A602846FFF7D2
:10771400BDFE8DE70A230BF1010BB2FBF3F29BE7ED
:10772400A345AFD220212846013CFFF7AFFEA6E7D0
:107734007007B0D52B21ABE7A345B6D2302128463C
:10774400013CFFF7A3FEADE73968CDE900460A1D09
:107754003A6053460A220968ACE73B681A1D3A604E
:10776400F107D3F8009020D4B9F1000F25D0484692
:1077740005F079FB0646B44200D9C4B909F1FF39D2
:1077840020E028460136FFF781FE19F8061000298B
:10779400F7D1A642BFF44CAF002C3FF449AF2021EF
:1077A4002846013CFFF772FEF3E70026EDE72021AF
:1077B4002846013CFFF76AFEDDE74E46DBE7284634
:1077C400FFF764FE19F8011F0029F8D130E703B070
:1077D400BDE8F08F2DE9F047B0F806904479D2F86F
:1077E40000A09DF8208009FB04F4043C06460AEB43
:1077F4000300A0420F4688BFA4EB030A191DC2F878
:1078040000A0B1FBF9F509FB15114DB9A9EB010471
:10781400544528BF5446BAF1000F04D1BDE8F0879F
:107824003668013DF1E704317B1970182246B8F13E
:10783400000F0ED001461846AAEB040A05F095FA8B
:10784400D145254436684C464FF0000128BF5446C4
:10785400E1E71946F0E7F8B546790146721E054698
:10786400002393422D6803D30024A64202D8F8BD16
:107874000133F6E70F682846FFF7D5FD0134394692
:10788400F3E72DE9F843068ACD1C0746FFF7A7FD69
:10789400043E35440446B5FBF6F5F0B14FF480736D
:1078A400EDB28380C680013D076081464FF0000839
:1078B400A84512D23846FFF792FD064648B16379CF
:1078C4000133637108F10108C9F8000007608146BB
:1078D400EEE72046FFF7BFFF34462046BDE8F883B5
:1078E40001210430FFF75FBD10B5012104460430C7
:1078F400FFF764FD10F0FF0F04D12046BDE81040EF
:10790400FFF7A9BF10BD1FB503920022009203AA7E
:10791400FFF760FF05B05DF804FB1FB50392012279
:10792400009203AAFFF756FF05B05DF804FB41DFA0
:1079340070470000064B10B500241C70054B1C60FA
:10794400BFF35F8F0449054800F030F8204610BDAE
:10795400102D0020142D002078D80200082D0020BE
:1079640007B500230DF107008DF80730FFF79AFCE7
:10797400F1EE103A23F09F03E1EE103ABFF35F8F6C
:10798400094B4022C3F884219DF80700FFF7AEFCA1
:1079940004F032FA20B1FFF7CAFF03B05DF804FB2C
:1079A40020BF40BF20BFF8E700E100E00B684A6851
:1079B4004360934208BF0023016008BF43607047DF
:1079C400436843B10268916852680B449342436030
:1079D40004BF00234360704710B50D49A1F59472AC
:1079E400914201D800200FE08B1ADB1003EBD37314
:1079F4005B1002EBC30452F83330834205D802D241
:107A040004F10802ECE7606810BD2146E8E700BF16
:107A1400C8D9020008B5FFF7DFFF024B002808BFF2
:107A2400184608BD8DD8020000F1804000F5E04002
:107A3400002382B0036003680193019B02B0704786
:107A4400F0B5534B534C1B6885B0002B3DD04FF41D
:107A5400827094F82E20FFF7E7FF2AB394F82F30B2
:107A640013BB4D4B1B68002B33D04FF48070FFF7D2
:107A7400DBFF94F82D20638B91B28B424ED95B1AB5
:107A840021899BB26383CB1A616801EB4301434BA9
:107A9400C3F82C16C3F830264FF48270FFF7C4FFE6
:107AA4003F4B01221A6014E0636802932389ADF806
:107AB4000C30E36800218DF8041023BB2374236881
:107AC40001A89847002384F82F3094F82E30002B17
:107AD400C7D1344B1B685BB14FF48870FFF7A4FF28
:107AE4000023237402238DF8043001A823689847E7
:107AF4002D4B1B6813B34FF48A70FFF795FF0023D7
:107B0400237405B0F0BD208B608363602081E16045
:107B1400002AD4D1214B01221A60D0E7BCD1E368FA
:107B2400012184F82F103BB1002161831B49C1F866
:107B34002C36C1F83026AFE76383ADE766694FF0B2
:107B440000470125002EDCD0B6FA86F227FA02F3AC
:107B54004632920026EA030602F1804303F5E0432D
:107B64001B68002BEED01046FFF75EFFA2F58C7267
:107B7400D30882F00402C2F380028DF808308DF835
:107B840004508DF80920236801A89847DAE700BF5C
:107B940004710040182D0020007100400070004066
:107BA400047000401071004014710040054B1B68C4
:107BB400082B01BF044B1868B0FA80F0400918BFC5
:107BC40000207047300100103401001008B54FF058
:107BD40080430022C3F80C21C3F81021C3F83825D0
:107BE4004FF0805203F54043D2F80414C3F8201533
:107BF400D2F80814C3F82415D2F80C14C3F82815C5
:107C0400D2F81014C3F82C15D2F81414C3F8301594
:107C1400D2F81814C3F83415D2F81C14C3F840155C
:107C2400D2F82014C3F84415D2F82414C3F8481524
:107C3400D2F82814C3F84C15D2F82C14C3F85015F4
:107C4400D2F83014C3F85415D2F83414C3F86015BC
:107C5400D2F83814C3F86415D2F83C14C3F8681584
:107C6400D2F84014C3F86C15D2F84424C3F8702534
:107C7400FFF79CFF10B1384B384A1A60FFF796FFA4
:107C840018B1374BFB22C3F81825FFF78FFF48B113
:107C94003449354B0A681B6822F00F0203F00F03C6
:107CA40013430B60FFF782FF18B1304B4FF400729F
:107CB4001A604FF08043D3F80024D20744BF6FF01A
:107CC4000102C3F800242A4AD2F8883043F470032E
:107CD400C2F88830BFF34F8FBFF36F8F4FF010237C
:107CE400D3F80022002A03DBD3F80432002B2FDA66
:107CF400204B0122C3F80425D3F80024002AFBD02A
:107D04004FF010221221C2F80012D3F80024002AE6
:107D1400FBD04FF010231222C3F80422154B1A464D
:107D2400D3F800140029FBD00021C3F80415D2F8BD
:107D34000034002BFBD0BFF34F8F0D490E4BCA68A4
:107D440002F4E0621343CB60BFF34F8F00BFFDE743
:107D54000A4B0B4A1A6008BD8C5600404881030048
:107D640000F00040E40E004058020010409602402B
:107D740000ED00E000E001400400FA0514260020B4
:107D84000090D00338B5074C051E04F1080318BF52
:107D94001C4623682BB11A6822605B682846984702
:107DA400F7E738BD502D002020B9054B01225A7049
:107DB400FFF7E8BF012802D1014A9070F8E7704745
:107DC400482D002020B9034B01225A70FFF7DABF77
:107DD400704700BF482D002038B50B4C237883B979
:107DE4000A486360A3602361E36000F007F9054675
:107DF40004F002F808B900F00DF9012323702846B5
:107E040038BD8525FBE700BF482D0020AD7D02006D
:107E140037B5184CA378054603F0FF029BB110B1A7
:107E240043680120984700230DF107008DF80730BF
:107E3400FFF738FAE3689DF807000133E360FFF7C2
:107E440055FA03B030BD0DF107008DF80720FFF798
:107E540029FA25B1226913463BB92A602561E368F2
:107E6400002BE7D100F0EAF8E4E79D42F7D01B6865
:107E7400F2E700BF482D002037B50B4C00230DF16D
:107E840007008DF80730FFF70DFAE368013BE36064
:107E9400E56815B900F0E0F8A5709DF80700FFF754
:107EA40025FA03B030BD00BF482D0020012813B5CA
:107EB40009D018B103281CD002B010BD0F4B012209
:107EC400C3F88020F8E70E4C00230DF107008DF86D
:107ED4000730FFF7E7F923780BB9FFF77DFFE36875
:107EE4009DF807000133E3600123A370FFF7FEF957
:107EF400E2E700F08FF8FFF7BFFFDDE700E100E005
:107F0400482D00201FB503788DF800304368019395
:107F1400037A8DF80830C3680393054A054B684615
:107F240053F8213052F82110984705B05DF804FB4E
:107F34005C2D0020642D00201FB503788DF80030DF
:107F44004368019383688DF80830C3680393054A36
:107F5400054B684653F8213052F82110984705B074
:107F64005DF804FB5C2D0020642D0020F0B5194B56
:107F74000678DFF870E043F82620174B94460A6928
:107F840043F826204B7F0EF806300C4607460FCCEC
:107F940089B06D460FC594E80F0085E80F001EF800
:107FA4000630049653B1BCF1000F0C4A694608BF71
:107FB4000022381D00F0C8FC09B0F0BDBCF1000F70
:107FC400074A694608BF002207F10C0000F0A2FA34
:107FD400F2E700BF642D00205C2D0020097F020021
:107FE4003D7F02006C2D002000F18040002382B010
:107FF400036003680193019B02B07047044A13793C
:1080040023B901211060918018467047852070477C
:10801400702D0020084B1A68D20706D4C02283F8BA
:1080240000230122C3F880211A604FF0804301220B
:10803400C3F81825704700BF00E100E008B54FF40D
:108044008270FFF7D1FF4FF080430222C3F804236C
:1080540001229A6008BD0000044B01221A604FF00F
:108064008042D2F81834DB03FBD470470C00004084
:10807400124B1B6810B573B14FF48070FFF7B4FF57
:108084004FF080430122C3F808230D4B587910B9EF
:108094005A711B6898470B4B1B6873B14FF482707D
:1080A400FFF7A2FF4FF080430222C3F80823044BDA
:1080B40001201B68BDE81040184710BD00010040B6
:1080C400702D00200401004000F1804000F5C04004
:1080D400002382B0036003680193019B02B07047E0
:1080E40003681F2B83BF03F01F03036001484FF095
:1080F400A04070470003005007B5019001A8FFF7A6
:10810400EFFF019B00EB8300D0F8002722F44032FC
:10811400C0F80027D0F8003743EA0143C0F800371D
:1081240003B05DF804FB00002DE9F04F002489B092
:10813400CDE90244624D4FF48072012102F1804383
:1081440003F5C04390B21B68012B06D1D5F8043364
:108154000B4202D0FFF7B8FF0C430432B2F5907F14
:108164004FEA4101EAD1574B1B68012B0ED14FF462
:10817400BE70FFF7A9FF4FF0A04344F00044D3F8CA
:1081840010350293504BD3F81035039314F0FF0FBE
:108194001AD04E4F00250126344210D0AB0003F113
:1081A400804303F5C043D3F81005D3F8101557F8EE
:1081B400253023B1C1F30141C0F3052098470135AF
:1081C400082D4FEA4606E7D1002C75DA0DF11008A8
:1081D40000230493C8F804304FF0FF33CDE906338D
:1081E400DFF8E8A0DFF8E89000273D4619F9014BD5
:1081F400631C48D0E4B2012324F0C00604F0070253
:1082040003FA02F2F00808AB191811F8083C1342FB
:1082140039D00AEB0603A40993F948305AF823B07D
:10822400BBF1000F08D1032C2DD118F800C04CEA83
:10823400020C08F800C001E0032CF6D001A8019656
:10824400FFF74EFF019B11F8181C03F5E07C114267
:1082540050F82C00C0F3014005D0022813D1032CA0
:108264000BD1214604E003280DD1032C05D10221B2
:108274003046FFF741FF0135EDB2BBF1000F02D0EC
:1082840021463046D84701370A2FAFD1A5B14FF068
:10829400A0430299D3F8102503F540739142D3F813
:1082A400103502D10399994206D002920393049A9D
:1082B400059B0692079395E709B0BDE8F08F00BFD0
:1082C400006000407C61004000030050782D0020D5
:1082D400F02D0020014B1B68184700BF042E00201E
:1082E4000E4B984237B50D4602D0002003B030BD86
:1082F40000230DF107008DF80730FEF7D3FF084B7C
:108304001C7914B901221D601A719DF80700FEF74B
:10831400EDFF002CE9D01120E8E700BF0020004069
:10832400042E0020034B984201BF034B00221A6025
:108334001A71704700200040042E0020002343508F
:1083440082B043580193019B02B070470A4610B5AE
:108354004FF48E71FFF7F2FF136A9168C95C136AD8
:1083640001331362C0F81C1510BD8B690A4610B5A1
:108374004FF4847123B9FFF7E1FFD0F8183510BD2D
:10838400FFF7DCFF536AD168D0F81805C854536A64
:1083940001335362F3E700001FB501238DF8003069
:1083A400044BCDE90110D3E900126846904705B0AB
:1083B4005DF804FB0C2E002030B54C4AD2F804338F
:1083C40013F4007F85B015464FD0D2F82431002B2A
:1083D4004BD04FF492711046FFF7B0FF4FF4017386
:1083E400C2F80833424B93F8291009B901215160AE
:1083F4003E4902228DF80020D1F88024C1F880245F
:1084040003929A690292DA6801920022C3E9062271
:108414006846D3E9001290473448D0F81C315BB168
:1084240033490A6A4B699A420A464BD291F828307A
:10843400002B47D1FFF78AFF2C4AD2F8443193B17D
:108444004FF4A2711046FFF779FF294B93F82910D6
:1084540009B1012111609A692AB100229A61586A0E
:10846400D968FFF799FF05B030BDD5F804335B0731
:10847400D2D5D5F80831002BCED01D4C1B4821464F
:10848400FFF773FF636AA2699A422346C4D1E26983
:10849400E1684AB12369E3600023606AA261E36191
:1084A4006362FFF779FFB7E794F829200AB901223C
:1084B4006A600E4A4FF40170C2F8080300229A6100
:1084C400586AEEE74FF48E710848FFF737FF516999
:1084D4000029B1D00023029191688DF800300191F8
:1084E40053616846D2E900139847A5E7002000408D
:1084F4000C2E00201F2886BF00F01F00044B4FF0F5
:10850400A04300F5E070022243F82020704700BF2A
:10851400000300502DE9F843664B047991462C2260
:1085240002FB0432064692F82A200D469846002A99
:1085340040F0BC8060490068FFF7D2FE074600287F
:1085440040F0B68029684A1C10D01F2987BF01F06B
:108554001F035A4A0B464FF0A0420120984003F5EE
:10856400E073C2F80805032042F823006868431C3E
:108574000DD01F288BBF00F01F0303464F4A4FF056
:10858400A04203F5E0734FF0000C42F823C03368B7
:10859400AA6995F814C0C3F824256A7DBCF1010FBB
:1085A4004CEA0202C3F86C25C3F81405C3F80C1591
:1085B4002BD1A968481C0DD01F298BBF01F01F02C5
:1085C4000A463E484FF0A04002F5E0724FF0000C1E
:1085D40040F822C0E868421C13D01F2887BF00F06F
:1085E4001F0C364A84464FF0A0424FF0010E0EFA9B
:1085F4000CFE0CF5E07CC2F808E54FF0030E42F8DF
:108604002CE0C3F80805C3F810152C23634308EBCA
:108614000302C2F804902A6948F80320B9F1000F54
:1086240031D04FF48E7130682D7FFFF787FE3068AC
:108634004FF4A271FFF782FE3268214BC2F8043373
:10864400120B53B2002BA8BF03F160404FEA53133F
:108654004FEA4511BABF1B4802F00F0500F561400F
:108664004FEA8303C9B203F16043B4BF415580F8B4
:10867400001303F5614302F01F02012101FA02F223
:10868400C3F880211A6033680422C3F800252C2320
:1086940003FB04830022C3E9062283F829205A61DC
:1086A400012283F82A203846BDE8F8830827FAE730
:1086B4001127F8E70C2E0020BD83020000030050B0
:1086C4008000020014ED00E02DE9F0410368047914
:1086D400254D0022C3F800252C2202FB0452064635
:1086E400526872B1214AC3F80823190B4AB2012017
:1086F400520901F01F0100FA01F120321C4840F830
:108704002210D3F80C05D3F81485D3F80815D3F840
:1087140010754FF0FF329042C3F81425C3F80C25AE
:10872400C3F80825C3F8102501D0FFF7E3FEB8F11C
:10873400FF3F02D04046FFF7DDFE7A1C02D03846E8
:10874400FFF7D8FE4B1C02D00846FFF7D3FE306873
:10875400FFF7E8FD2C2303FB0454002384F82A309C
:108764006360BDE8F08100BF0C2E0020840202008B
:1087740000E100E02DE9F843224F06794FF02C097F
:1087840009FB067480466569002D37D16261A160DA
:1087940025624FF48E71006884F82850FFF7CEFDEF
:1087A400D8F80000012383602146FFF7CFFD6368FA
:1087B400A1462BBBD8F80050226A63699A4212D3AF
:1087C400D8F80030D3F81C21002AFBD00122DA604B
:1087D40000202C2303FB067600237361BDE8F88395
:1087E40094F8283043B9D5F81C31002BF8D0494609
:1087F4002846FFF7ABFDDFE70F20EAE71120EDE79E
:108804002846EBE70C2E00200023435082B0435847
:108814000193019B02B070471FB501238DF800300E
:10882400054B8DF8080001916846D3E90012904782
:1088340005B05DF804FB00BF382E00207FB5384A30
:10884400D2F82461002E49D010464FF49271FFF7FC
:10885400DBFF02238DF80030D2F88034C2F8803474
:108864000393D2F83C358DF808302E4BDA68019228
:108874000022C3E906226846D3E900129047284A39
:10888400D2F8443173B14FF4A2711046FFF7BCFF24
:10889400244B996931B100219961D2F83C05D9681A
:1088A400FFF7BAFF1E4AD2F82031ABB14FF49071F2
:1088B4001046FFF7A9FF1B4B596969B1D2F84C1553
:1088C4008DF80810002299688DF8002001915A61F2
:1088D4006846D3E90012904704B070BDD2F8103155
:1088E400002BCCD04FF488711046FFF78DFF0D4B51
:1088F400D2F83C0599698842C1D1DC69D96864B170
:10890400D2F8005225F02005C2F800521A699C6181
:10891400DA60DE61FFF780FFB1E79C61FAE700BF30
:1089240000200040382E00201F2886BF00F01F00C2
:10893400044B4FF0A04300F5E070022243F82020DE
:10894400704700BF000300502DE9F8436A4B0679D5
:108954009146242202FB0632044692F820200D465A
:108964009846002A40F0C48064490068FFF7B8FCC8
:108974000746002840F0BE802868421C10D01F28FB
:1089840087BF00F01F035E4A03464FF0A042012157
:10899400994003F5E073C2F80815032142F8231047
:1089A40069684B1C0DD01F298BBF01F01F030B46B8
:1089B400534A4FF0A04203F5E0734FF0000C42F825
:1089C40023C02368AA6995F814C0C3F824256A7DD6
:1089D400BCF1010F4CEA0202C3F86C25C3F80C0584
:1089E400C3F814152BD1A968481C0DD01F298BBFBF
:1089F40001F01F020A4642484FF0A04002F5E0721F
:108A04004FF0000C40F822C0E868421C13D01F2825
:108A140087BF00F01F0C3A4A84464FF0A0424FF043
:108A2400010E0EFA0CFE0CF5E07CC2F808E54FF0DE
:108A3400030E42F82CE0C3F80805C3F810152423EC
:108A4400734308EB0302C2F804902A6948F8032030
:108A5400B9F1000F3BD04FF4887120682D7FFFF7E8
:108A6400D3FE4FF490712068FFF7CEFE4FF492715D
:108A74002068FFF7C9FE20684FF4A271FFF7C4FE17
:108A84002268204BC2F80433120B53B2002BA8BF48
:108A940003F160404FEA53134FEA4511BABF1A4835
:108AA40002F00F0500F561404FEA8303C9B203F1F8
:108AB4006043B4BF415580F8001303F5614302F0ED
:108AC4001F02012101FA02F2C3F880211A6023680F
:108AD4000822C3F80025242303FB06830022C3E9EC
:108AE40006225A61012283F820203846BDE8F88323
:108AF4000827FAE71127F8E7382E002041880200FA
:108B0400000300501003020014ED00E02DE9F041D1
:108B140003680479254D0022C3F80025242202FBB2
:108B240004520646526872B1214AC3F80823190B4D
:108B34004AB20120520901F01F0100FA01F120326A
:108B44001C4840F82210D3F80C05D3F81485D3F848
:108B54000815D3F810754FF0FF329042C3F80C2576
:108B6400C3F81425C3F80825C3F8102501D0FFF76E
:108B7400DBFEB8F1FF3F02D04046FFF7D5FE7A1C7A
:108B840002D03846FFF7D0FE4B1C02D00846FFF750
:108B9400CBFE3068FFF7C6FB242303FB04540023F9
:108BA40084F820306360BDE8F08100BF382E0020D7
:108BB4001003020000E100E001F06043B3F1005F44
:108BC4002DE9F041074632D11C4B0679242505FBDB
:108BD400063598466C6964BB6A61A96000684FF405
:108BE4009071FFF711FE4FF4AC713868FFF70CFE7B
:108BF4003B686A69A968C3F84415C3F8482501228B
:108C04009A606A68BAB9D3F82011D3F8582149B9DF
:108C1400002AF8D00F20242303FB06860023736167
:108C2400BDE8F081002A14BF0F200020F3E71020D4
:108C3400F6E71120F4E72046F2E700BF382E0020C3
:108C44000023435082B043580193019B02B0704704
:108C5400D0F8103170B505460C4653B14FF4887105
:108C6400FFF7EEFF63795A0703D523680BB10120A0
:108C74009847D5F814315BB14FF48A712846FFF751
:108C8400DFFF63791B0703D523680BB102209847E4
:108C9400D5F81C315BB128464FF48E71FFF7D0FF35
:108CA400607910F0100002D1236803B19847D5F819
:108CB400043163B14FF482712846FFF7C1FF0123E9
:108CC400237123681BB10320BDE87040184770BDB1
:108CD40001490248FFF7BCBF5C2E002000C00140E0
:108CE40001490248FFF7B4BF642E0020001002407F
:108CF40001490248FFF7ACBF6C2E0020002002405F
:108D040001490248FFF7A4BF742E002000D002409E
:108D14002DE9F743002406460F4600F5A0754FF4ED
:108D24008038A146A0002B6800F5A07080B26BB11A
:108D3400D6F8043308FA04F21A4207D0C5F80090B2
:108D44002B680193019BD7E9003198470134042C27
:108D540005F10405E6D103B0BDE8F08301490248FA
:108D6400FFF7D6BF7C2E0020009000400149024846
:108D7400FFF7CEBF882E002000A0004041DF7047DF
:108D8400014B01221A70704744EA0020094B1B78FA
:108D940063B1BFF34F8F0849084BCA6802F4E0621D
:108DA4001343CB60BFF34F8F00BFFDE7044802F0CD
:108DB4009FB800BFB42E002000ED00E00400FA05C7
:108DC400867703001FB50C4B0C4C187000220093DF
:108DD400694601230A482270CDE90132039203F067
:108DE400FBFC08B1FDF770FF23780BB104B010BD94
:108DF400FFF7C4FFF8E700BF45EA002044EA00207B
:108E0400809C030038B5054D044645F001054FF438
:108E14007A40A847013CFAD138BD00BF80770300EF
:108E240038B50E4C0E480F4D01232370FEF72AFA75
:108E340000224FF4A0210A48FEF7DEF9D5F81035D8
:108E4400DB0604D44FF4FA70FFF7DCFFF6E70448BE
:108E5400FEF718FA0023237038BD00BFB42E00209B
:108E6400942E00200003005038B54FF0A0444FF476
:108E74008015C4F80C556420FFF7C4FFC4F80855E6
:108E84006420BDE83840FFF7BDBF4FF0A0434FF466
:108E94008052C3F80C25FFF795BF000008B51220D7
:108EA400FFF7F3FF044B4FF4964043F00103984758
:108EB400BDE80840FFF7B4BF807703004FF0A0433C
:108EC4004FF48052C3F80825FFF77CBF012838B55A
:108ED4003ED14A4B4A4D002420201C70FFF7D5FF99
:108EE40015F8010B0134FFF7E9FF2C2CF8D12120F0
:108EF400FFF7CBFF434D002415F8010B0134FFF7B6
:108F0400DDFF2A2CF8D12220FFF7BFFF3E4D0024BD
:108F140015F8010B0134FFF7D1FF2A2CF8D12320D7
:108F2400FFF7B3FF394D002415F8010B0134FFF7A7
:108F3400C5FF2A2CF8D12420FFF7A7FF344D0024C5
:108F440015F8010B0134FFF7B9FF2A2CF8D138BD0D
:108F5400A8BB2A4B1C78002CF9D1012220201A70BE
:108F6400FFF793FF2B4D15F8010B0134FFF7A6FF14
:108F74002C2CF8D12120FFF788FF274D002415F869
:108F8400010B0134FFF79AFF2A2CF8D12220FFF7B6
:108F94007CFF224D002415F8010B0134FFF78EFFEE
:108FA4002A2CF8D12420FFF770FF1D4D002415F85A
:108FB400010B0134FFF782FF2A2CF8D1C7E70228FE
:108FC4000CD12320FFF761FF164D002415F8010B87
:108FD4000134FFF773FF2A2CF8D1B8E70328B6D180
:108FE4002320FFF752FF104D002415F8010B013424
:108FF400FFF764FF2A2CF8D1A9E700BF35EA002067
:10900400918403003B85030011840300BD840300A5
:10901400BD83030065840300658503003B8403006E
:10902400E783030011850300E78403001FB5134B96
:109034000FCB6C4684E80F0016238DF8033041F6FD
:109044000F03ADF800300E4A0E480023214603F00A
:109054004BFA08B1FDF738FE0B4A0C480021FEF725
:10906400B9F80B4B0022C3F810274FF0A04303229A
:10907400C3F85027C3F8302704B010BDB8DD020090
:10908400858D02007C9C0300918D0200C8DD0200E6
:1090940000030050F8B5074691200D4616461C46BD
:1090A400FFF7F3FE9020FFF7F0FE3846FFF706FFC8
:1090B400681EC0B2FFF702FF0020FFF7FFFE304634
:1090C400FFF7FCFE0020FFF7F9FE601EC0B2FFF7B9
:1090D400F5FE2820BDE8F840FFF7F0BE08B50420EF
:1090E400FFF7D3FEBDE80840FFF79ABE38B5044643
:1090F4001020FFF7CAFE4BF680350020FFF7DEFE96
:10910400013DFAD11320FFF7C0FE04F53B4580353D
:1091140014F8010BFFF7D2FEA542F9D138BD08B50A
:10912400FFF77EFE0720FFF7B0FEBDE80840FFF71B
:1091340077BE08B5FFF774FE0220BDE80840FFF7CC
:10914400A4BE00002DE9F04FA54B002589B01D7089
:10915400A44B059107469A68A348294603F02EFEBE
:109164002C46029501950395039B059A934202DBD5
:1091740009B0BDE8F08F029B002BF9D1B94619F86C
:10918400013B203B5E2B00F22482DFE813F07C0AD3
:10919400220222028C09EC0A220222022202220268
:1091A4002202D40A22020D09AD09410922029C07B8
:1091B400BE07FD071F08410863088508A708C908FA
:1091C400EB0857092202260A2202000B220222027D
:1091D4005F008100A300C500E60007013B015C01BC
:1091E4007D019F01C001E1010202310252027302BA
:1091F4009402B502F302140335035603770399036B
:10920400BA03DB03900A2202B30ACF092402590AE3
:10921400FC031D043E045F049D04BE04DE0400053B
:109224002205430564058605A805CA05EC050E0656
:109234004D066F068F06B106D106F30615073607ED
:1092440058077A07F80ADE0AFD0AF109644B664AF0
:1092540093F800E0DFF89481642303FB054313448F
:10926400012140F2F92C08EB0107022017F8012B29
:10927400BEF1000F01D0D243D2B21A5401300A28F1
:10928400F4D10831614503F16403ECD10834A0E161
:10929400534B554A93F800E0DFF85481642303FBF1
:1092A40005431344012140F29A2C08EB01070220E4
:1092B40017F8012BBEF1000F01D0D243D2B21A54D9
:1092C40001300928F4D10731614503F16403ECD17D
:1092D40007347EE1424B444A93F800E0DFF81481FE
:1092E400642303FB05431344012140F23B2C08EBA8
:1092F4000107022017F8012BBEF1000F01D0D24361
:10930400D2B21A5401300828F4D10631614503F170
:109314006403ECD106345CE1314B334A93F800E04A
:10932400DFF8D480642303FB05431344012140F296
:10933400F92C08EB0107022017F8012BBEF1000FEE
:1093440001D0D243D2B21A5401300A28F4D10831E0
:10935400614503F16403ECD198E7214B224A93F869
:1093640000E0DFF89880642303FB054313440121E4
:1093740040F29A2C08EB0107022017F8012BBEF1EA
:10938400000F01D0D243D2B21A5401300928F4D1CB
:109394000731614503F16403ECD199E7104B124A9C
:1093A40093F800E0DFF85880642303FB054313447B
:1093B400012140F23B2C08EB0107022017F8012B96
:1093C400BEF1000F01D0D243D2B21A5401300828A2
:1093D400F4D10631614503F16403ECD19AE700BF8F
:1093E40036EA002038EA0020B52E00208EED020077
:1093F4008FF0020030F3020077F5020078F80200E3
:1094040019FB0200CD4BCE4A93F800E0DFF8348319
:10941400642303FB05431344012140F29A2C08EB17
:109424000107022017F8012BBEF1000F01D0D2432F
:10943400D2B21A5401300928F4D10731614503F13D
:109444006403ECD144E7BD4BBD4A93F800E0DFF878
:10945400F882642303FB05431344012140F2F92CF1
:1094640008EB0107022017F8012BBEF1000F01D011
:10947400D243D2B21A5401300A28F4D108316145DA
:1094840003F16403ECD101E7AC4BAD4A93F800E07F
:10949400DFF8B882642303FB05431344012140F23F
:1094A4007D1C08EB0107022017F8012BBEF1000F09
:1094B40001D0D243D2B21A5401300628F4D1043177
:1094C400614503F16403ECD1043482E09B4B9C4A74
:1094D40093F800E0DFF87882642303FB0543134428
:1094E400012140F27D1C08EB0107022017F8012B33
:1094F400BEF1000F01D0D243D2B21A540130062873
:10950400F4D10431614503F16403ECD1DCE78B4B06
:109514008B4A93F800E0DFF83C82642303FB0543A5
:109524001344012140F2F92C08EB0107022017F83B
:10953400012BBEF1000F01D0D243D2B21A54013034
:109544000A28F4D10831614503F16403ECD19DE6A6
:109554007A4B7B4A93F800E0DFF8FC81642303FB39
:1095640005431344012140F23B2C08EB0107022080
:1095740017F8012BBEF1000F01D0D243D2B21A5416
:1095840001300828F4D10631614503F16403ECD1BC
:10959400C0E66A4B6A4A93F800C0DFF8C0E164236E
:1095A40003FB0543134401210EEB0107022017F8C6
:1095B400012BBCF1000F01D0D243D2B21A540130B6
:1095C4000B28F4D10931B1F5567F03F16403EBD1D3
:1095D4000934582C01DD78350024B5F5C07F029B91
:1095E400C8BF01230293039B013303934F46BBE59A
:1095F400524B534A93F800E0DFF86481642303FB81
:1096040005431344012140F29A2C08EB0107022080
:1096140017F8012BBEF1000F01D0D243D2B21A5475
:1096240001300928F4D10731614503F16403ECD119
:109634004EE6424B424A93F800E0DFF82881642367
:1096440003FB05431344012140F2F92C08EB010705
:10965400022017F8012BBEF1000F01D0D243D2B281
:109664001A5401300A28F4D10831614503F1640326
:10967400ECD10BE6314B324A93F800E0DFF8E88096
:10968400642303FB05431344012140F29A2C08EBA5
:109694000107022017F8012BBEF1000F01D0D243BD
:1096A400D2B21A5401300928F4D10731614503F1CB
:1096B4006403ECD10CE6214B214A93F800E0DFF877
:1096C400AC80642303FB05431344012140F2F92CCD
:1096D40008EB0107022017F8012BBEF1000F01D09F
:1096E400D243D2B21A5401300A28F4D10831614568
:1096F40003F16403ECD1C9E5104B114A93F800E07F
:10970400DFF86C80642303FB05431344012140F21A
:109714009A2C08EB0107022017F8012BBEF1000F69
:1097240001D0D243D2B21A5401300928F4D10731FE
:10973400614503F16403ECD1CAE500BF36EA0020B9
:10974400B52E002060FD0200070003000E03030095
:10975400950403001C060300230903006A0B03009D
:10976400D10E0300781103007F14030026170300B1
:109774002D1A0300C64BC74A93F800E0DFF818839C
:10978400642303FB05431344012140F23B2C08EB03
:109794000107022017F8012BBEF1000F01D0D243BC
:1097A400D2B21A5401300828F4D10631614503F1CC
:1097B4006403ECD1AEE5B64BB64A93F800E0DFF8AB
:1097C400DC82642303FB05431344012140F29A2CF9
:1097D40008EB0107022017F8012BBEF1000F01D09E
:1097E400D243D2B21A5401300928F4D10731614569
:1097F40003F16403ECD16BE5A54BA64A93F800E0B2
:10980400DFF89C82642303FB05431344012140F2E7
:10981400F92C08EB0107022017F8012BBEF1000F09
:1098240001D0D243D2B21A5401300A28F4D10831FB
:10983400614503F16403ECD128E5954B954A93F80F
:1098440000E0DFF86082642303FB05431344012135
:1098540040F2F92C08EB0107022017F8012BBEF1A6
:10986400000F01D0D243D2B21A5401300A28F4D1E5
:109874000831614503F16403ECD107E5844B854A63
:1098840093F800E0DFF82082642303FB05431344CC
:10989400012140F2164C08EB0107022017F8012BB6
:1098A400BEF1000F01D0D243D2B21A5401300D28B8
:1098B400F4D10B31614503F16403ECD10B3488E638
:1098C400734B744A93F800E0DFF8E081642303FBF0
:1098D40005431344012140F2F92C08EB010702204F
:1098E40017F8012BBEF1000F01D0D243D2B21A54A3
:1098F40001300A28F4D10831614503F16403ECD145
:10990400C4E4634B634A93F800E0DFF8A481642362
:1099140003FB05431344012140F2F92C08EB010732
:10992400022017F8012BBEF1000F01D0D243D2B2AE
:109934001A5401300A28F4D10831614503F1640353
:10994400ECD1A3E4524B534A93F800E0DFF864816E
:10995400642303FB05431344012140F29A2C08EBD2
:109964000107022017F8012BBEF1000F01D0D243EA
:10997400D2B21A5401300928F4D10731614503F1F8
:109984006403ECD1A4E4424B424A93F800E0DFF8CC
:109994002881642303FB05431344012140F23B2C3B
:1099A40008EB0107022017F8012BBEF1000F01D0CC
:1099B400D243D2B21A5401300828F4D10631614599
:1099C40003F16403ECD1A5E4314B324A93F800E08F
:1099D400DFF8E880642303FB05431344012140F2CC
:1099E4003B2C08EB0107022017F8012BBEF1000FF6
:1099F40001D0D243D2B21A5401300828F4D106312E
:109A0400614503F16403ECD184E4214B214A93F8CA
:109A140000C0DFF8ACE0642303FB054313440121D9
:109A24000EEB0107022017F8012BBCF1000F01D047
:109A3400D243D2B21A5401300728F4D10531B1F51A
:109A4400EE7F03F16403EBD10534C2E5104B114AF8
:109A540093F800E0DFF86C80642303FB05431344B0
:109A6400012140F29A2C08EB0107022017F8012B80
:109A7400BEF1000F01D0D243D2B21A5401300928EA
:109A8400F4D10731614503F16403ECD120E400BF54
:109A940036EA0020B52E0020D41C03001B1F03004F
:109AA400C2210300C9240300CA270300EB2B0300CF
:109AB400EC2E0300ED3103008E340300CF36030097
:109AC40010390300F13A0300C94BCA4A93F800E085
:109AD400DFF82483642303FB05431344012140F28C
:109AE4003B2C08EB0107022017F8012BBEF1000FF5
:109AF40001D0D243D2B21A5401300828F4D106312D
:109B0400614503F16403ECD104E4B94BB94A93F819
:109B140000C0DFF8E8E2642303FB0543134401219A
:109B24000EEB0107022017F8012BBCF1000F01D046
:109B3400D243D2B21A5401300728F4D10531B1F519
:109B4400EE7F03F16403EBD17EE7A94BA94A93F8B6
:109B540000E0DFF8AC82642303FB054313440121D6
:109B640040F29A2C08EB0107022017F8012BBEF1F2
:109B7400000F01D0D243D2B21A5401300928F4D1D3
:109B84000731614503F16403ECD1FFF7A1BB984BA6
:109B9400984A93F800E0DFF86C82642303FB0543E2
:109BA4001344012140F29A2C08EB0107022017F814
:109BB400012BBEF1000F01D0D243D2B21A540130AE
:109BC4000928F4D10731614503F16403ECD1FFF7AF
:109BD4007FBB874B874A93F800E0DFF82C8264232D
:109BE40003FB05431344012140F27D1C08EB0107EC
:109BF400022017F8012BBEF1000F01D0D243D2B2DC
:109C04001A5401300628F4D10431614503F1640388
:109C1400ECD159E4764B774A93F800E0DFF8EC8115
:109C2400642303FB05431344012140F27D1C08EB2C
:109C34000107022017F8012BBEF1000F01D0D24317
:109C4400D2B21A5401300628F4D10431614503F12B
:109C54006403ECD138E4664B664A93F800E0DFF81D
:109C6400B081642303FB05431344012140F29A2C81
:109C740008EB0107022017F8012BBEF1000F01D0F9
:109C8400D243D2B21A5401300928F4D107316145C4
:109C940003F16403ECD1FFF71BBB554B554A93F812
:109CA40000E0DFF87081642303FB054313440121C2
:109CB40040F27D1C08EB0107022017F8012BBEF1CE
:109CC400000F01D0D243D2B21A5401300628F4D185
:109CD4000431614503F16403ECD1FFF7F5BB444B58
:109CE400444A93F800E0DFF83081642303FB054322
:109CF4001344012140F2B73C08EB0107022017F896
:109D0400012BBEF1000F01D0D243D2B21A5401305C
:109D14000C28F4D10A31614503F16403ECD10A340F
:109D240057E4334B334A93F800E0DFF8F0806423C0
:109D340003FB05431344012140F29A2C08EB01076D
:109D4400022017F8012BBEF1000F01D0D243D2B28A
:109D54001A5401300928F4D10731614503F1640331
:109D6400ECD1FFF7B5BA224B224A93F800E0DFF8B2
:109D7400B080642303FB05431344012140F23B2CD0
:109D840008EB0107022017F8012BBEF1000F01D0E8
:109D9400D243D2B21A5401300828F4D106316145B5
:109DA40003F16403ECD1FFF7B5BA114B114A93F8F0
:109DB40000E0DFF87080642303FB054313440121B2
:109DC40040F29A2C08EB0107022017F8012BBEF190
:109DD400000F01D0D243D2B21A5401300928F4D171
:109DE4000731614503F16403ECD1FFF771BA00BF99
:109DF40036EA0020B52E0020923D0300D33F030035
:109E0400B441030055440300F646030077480300B9
:109E1400F8490300994C03001A4E0300DB51030078
:109E24007C540300BD560300C94BCA4A93F800E0B2
:109E3400DFF82483642303FB05431344012140F228
:109E44009A2C08EB0107022017F8012BBEF1000F32
:109E540001D0D243D2B21A5401300928F4D10731C7
:109E6400614503F16403ECD1FFF732BAB84BB94A48
:109E740093F800C0DFF8E4E2642303FB05431344D2
:109E840001210EEB0107022017F8012BBCF1000F92
:109E940001D0D243D2B21A5401300728F4D105318B
:109EA400B1F5EE7F03F16403EBD1CDE5A84BA94AEC
:109EB40093F800E0DFF8A882642303FB054313440E
:109EC400012140F23B2C08EB0107022017F8012B7B
:109ED400BEF1000F01D0D243D2B21A540130082887
:109EE400F4D10631614503F16403ECD1FFF712BAF2
:109EF400974B984A93F800C0DFF868E2642303FBA9
:109F04000543134401210EEB0107022017F8012B2E
:109F1400BCF1000F01D0D243D2B21A540130072849
:109F2400F4D10531B1F5EE7F03F16403EBD18BE598
:109F3400874B884A93F800E0DFF82C82642303FB04
:109F440005431344012140F29A2C08EB0107022037
:109F540017F8012BBEF1000F01D0D243D2B21A542C
:109F640001300928F4D10731614503F16403ECD1D0
:109F7400FFF7AEB9764B774A93F800E0DFF8EC814F
:109F8400642303FB05431344012140F29A2C08EB9C
:109F94000107022017F8012BBEF1000F01D0D243B4
:109FA400D2B21A5401300928F4D10731614503F1C2
:109FB4006403ECD1FFF78CB9654B664A93F800E073
:109FC400DFF8AC81642303FB05431344012140F211
:109FD400B73C08EB0107022017F8012BBEF1000F74
:109FE40001D0D243D2B21A5401300C28F4D10A3130
:109FF400614503F16403ECD191E6554B554A93F85E
:10A0040000E0DFF87081642303FB0543134401215E
:10A0140040F29A2C08EB0107022017F8012BBEF13D
:10A02400000F01D0D243D2B21A5401300928F4D11E
:10A034000731614503F16403ECD1FFF749B9444B9F
:10A04400444A93F800E0DFF83081642303FB0543BE
:10A054001344012140F29A2C08EB0107022017F85F
:10A06400012BBEF1000F01D0D243D2B21A540130F9
:10A074000928F4D10731614503F16403ECD1FFF7FA
:10A0840027B9334B334A93F800E0DFF8F0806423B8
:10A0940003FB05431344012140F23B2C08EB010769
:10A0A400022017F8012BBEF1000F01D0D243D2B227
:10A0B4001A5401300828F4D10631614503F16403D0
:10A0C400ECD1FFF727B9224B224A93F800E0DFF8DE
:10A0D400B080642303FB05431344012140F23B2C6D
:10A0E40008EB0107022017F8012BBEF1000F01D085
:10A0F400D243D2B21A5401300828F4D10631614552
:10A1040003F16403ECD1FFF705B9114B114A93F83D
:10A1140000E0DFF87080642303FB0543134401214E
:10A1240040F23B2C08EB0107022017F8012BBEF18B
:10A13400000F01D0D243D2B21A5401300828F4D10E
:10A144000631614503F16403ECD1FFF7E3B800BFC6
:10A1540036EA0020B52E00205E590300F85B0300A8
:10A16400D95D03001A600300FB6103009C640300D3
:10A174003D670300FE6A03009F6D03004070030007
:10A184008F850300D0870300C84BC94A93F800E0C9
:10A19400DFF82C83642303FB05431344012140F2BD
:10A1A4003B2C08EB0107022017F8012BBEF1000F2E
:10A1B40001D0D243D2B21A5401300828F4D1063166
:10A1C400614503F16403ECD1FFF7A4B8B74BB84A77
:10A1D40093F800E0DFF8EC82642303FB05431344A7
:10A1E400012140F23B2C08EB0107022017F8012B58
:10A1F400BEF1000F01D0D243D2B21A540130082864
:10A20400F4D10631614503F16403ECD1FFF782B860
:10A21400A64BA74A93F800E0DFF8AC82642303FB63
:10A2240005431344012140F29A2C08EB0107022054
:10A2340017F8012BBEF1000F01D0D243D2B21A5449
:10A2440001300928F4D10731614503F16403ECD1ED
:10A25400FFF73EB8954B964A93F800E0DFF86C821E
:10A26400642303FB05431344012140F23B2C08EB18
:10A274000107022017F8012BBEF1000F01D0D243D1
:10A28400D2B21A5401300828F4D10631614503F1E1
:10A294006403ECD1FFF73EB8844B854A93F800E0A1
:10A2A400DFF82C82642303FB05431344012140F2AD
:10A2B4003B2C08EB0107022017F8012BBEF1000F1D
:10A2C40001D0D243D2B21A5401300828F4D1063155
:10A2D400614503F16403ECD1FFF71CB8734B744A76
:10A2E40093F800E0DFF8EC81642303FB0543134497
:10A2F400012140F23B2C08EB0107022017F8012B47
:10A30400BEF1000F01D0D243D2B21A540130082852
:10A31400F4D10631614503F16403ECD1FEF7FABFD1
:10A32400624B634A93F800E0DFF8AC81642303FBDB
:10A3340005431344012140F23B2C08EB01070220A2
:10A3440017F8012BBEF1000F01D0D243D2B21A5438
:10A3540001300828F4D10631614503F16403ECD1DE
:10A36400FEF7D8BF514B524A93F800E0DFF86C81F6
:10A37400642303FB05431344012140F23B2C08EB07
:10A384000107022017F8012BBEF1000F01D0D243C0
:10A39400D2B21A5401300828F4D10631614503F1D0
:10A3A4006403ECD1FEF7B6BF019BDFF834E1DFF8BC
:10A3B40000A19F1E3D4B012093F800804FF0000C3C
:10A3C4000246DEF804309A4200F2E5816146012338
:10A3D40017E0BA4213DB019EB24210DA049EB34284
:10A3E4000DDB5B450BDC334E00F1010C305CB8F146
:10A3F400000F01D0C043C0B201F80A006046013327
:10A404000131DEF800609E428C46E2D20132D8E788
:10A41400264B274A1878284F642303FB054313442B
:10A424000121CA5D08B1D243D2B2013160299A70C8
:10A4340003F16403F5D10134FFF7CBB81B4B1F4F75
:10A4440018781B4B642202FB05421A440123D95D90
:10A4540008B1C943C9B20133602B917002F164029F
:10A46400F5D10134114A124992F800E0DFF8748002
:10A47400642202FB05420A4403F23A2C08EB030768
:10A48400022017F8011BBEF1000F01D0C943C9B265
:10A49400115401300828F4D106339C4502F16402BA
:10A4A400ECD1FEF737BF0123DCE700BF36EA00201A
:10A4B400B52E0020B87603009C770300577603007E
:10A4C400118A0300528C0300938E0300349103001D
:10A4D40075930300B6950300F7970300389A0300B9
:10A4E40038EA00201A780300AC4BAD4A93F800C058
:10A4F400DFF8B8E2642303FB0543134401210EEBA8
:10A504000107022017F8012BBCF1000F01D0D24340
:10A51400D2B21A5401300528F4D10331B1F58F7F3A
:10A5240003F16403EBD10334FFF753B89B4B9C4A0C
:10A5340093F800E0DFF87882642303FB05431344B7
:10A54400012140F2B73C08EB0107022017F8012B68
:10A55400BEF1000F01D0D243D2B21A5401300C28FC
:10A56400F4D10A31614503F16403ECD1FFF7D7BBA1
:10A57400019BDFF840E2DFF828A2A3F10A07874B2A
:10A58400012093F800804FF0000C0246DEF80430FE
:10A594009342C0F000816146012317E0BA4213DB05
:10A5A400019EB24210DA049EB3420DDB5B450BDC24
:10A5B4007C4E00F1010C305CB8F1000F01D0C043B7
:10A5C400C0B201F80A00604601330131DEF80060D0
:10A5D4009E428C46E2D20132D8E7019BDFF8D4E1F7
:10A5E400A3F10E076D4B012093F800804FF0000C8F
:10A5F4000246DEF804309A4200F2CD80614601231F
:10A6040017E0BA4213DB019EB24210DA049EB34251
:10A614000DDB5B450BDC644E00F1010C305CB8F1E2
:10A62400000F01D0C043C0B25D4E8855604601336F
:10A634000131DEF800A09A458C46E2D20132D8E717
:10A64400564B574A93F800E0DFF86C81642303FB10
:10A6540005431344012140F62B0C08EB01070220AB
:10A6640017F8012BBEF1000F01D0D243D2B21A5415
:10A6740001301828F4D11631614503F16403ECD19B
:10A684001634FEF7A6BF454B45491A786423524257
:10A6940003FB05430B44D2B2002101315F299A70B8
:10A6A400DA7003F16403F8D10234FEF792BF3B4B36
:10A6B4003B4A93F800E0DFF80481642303FB05437D
:10A6C4001344012140F2CC7C08EB0107022017F867
:10A6D400012BBEF1000F01D0D243D2B21A54013083
:10A6E4001728F4D11531614503F16403ECD1153415
:10A6F400FEF76FBF294B2A4A93F800E0DFF8C080C9
:10A70400642303FB05431344012140F2CC7C08EB92
:10A714000107022017F8012BBEF1000F01D0D2432C
:10A72400D2B21A5401301728F4D11531614503F11E
:10A734006403ECD1DBE70BF1020304930BF1030B8D
:10A7440040F2DF130193FEF744BF7B788DF81C3091
:10A75400BB788DF81D3007F1030907A802F0E7FA6A
:10A76400019B1B1AEEE77B788DF81C30BB788DF8C3
:10A774001D30FB788DF81E3007F10409EDE7074B17
:10A7840001221A70FEF725BF044B0022F9E70123CA
:10A794000293FEF71EBF0197FEF71BBF36EA0020A7
:10A7A400B52E002081720300FD7703005B7A03005D
:10A7B4009672030038EA00207C7B0300CCDD0200A3
:10A7C400ADE5020070B505460E461446A2B9032055
:10A7D400FEF77CFB244B01221A70244A02231360E7
:10A7E4004FF4D471D4235360D02091602246E021E9
:10A7F400FEF750FCFF2215E0022A21D10320FEF7C8
:10A8040065FB194B194A00241C700B23136040F696
:10A814001C11D4235360204691602246D021FEF7B8
:10A8240039FC224631462846FEF78CFC1048FEF7D8
:10A834005DFCFEF733FB0E4802F098F9002070BD72
:10A84400012A04D10022D42310211046D0E7032A80
:10A85400ECD1064B3C221A6040F21E325A604BF691
:10A8640080329A600022DFE736EA002038EA0020CE
:10A87400B52E002007B5FEF7F7FA0120FEF705FB19
:10A884000720FEF71BFB0720FEF718FB3F20FEF70F
:10A8940015FB3F20FEF712FB0420FEF7F6FA204BCF
:10A8A4004FF4C85043F001039847FEF7B9FA00206B
:10A8B400FEF7EBFA1F20FEF701FB6120FEF7E5FA35
:10A8C4000320FEF7FBFA2020FEF7F8FA0120FEF73A
:10A8D400F5FAE020FEF7F2FA1520FEF7D6FA00208A
:10A8E400FEF7ECFA5020FEF7D0FA1020FEF7E6FA55
:10A8F4000720FEF7E3FA6020FEF7C7FA2220FEF7EE
:10A90400DDFA31230093032201238C210548FFF74C
:10A9140059FFFEF704FC03B05DF804EBFEF709BC35
:10A92400807703001826002010B1012802D0704758
:10A93400FEF7F5BBFEF7FDBB08B5064A0648002145
:10A94400FCF748FC01224FF420310448BDE80840DC
:10A95400FCF752BC2DA902008C9C030048EA00209D
:10A9640013B50378352B04460CD1BFF34F8F0F4931
:10A974000F4BCA6802F4E0621343CB60BFF34F8FFE
:10A9840000BFFDE7FEF7AAFB302300930322002358
:10A99400C8212046FFF716FF064801224FF4203154
:10A9A40002B0BDE81040FCF727BC00BF00ED00E09A
:10A9B4000400FA0548EA00206DDF704772DF704733
:10A9C40073DF704774DF704776DF704777DF704757
:10A9D4007ADF70477FDF70478FDF7047B1DF7047E2
:10A9E400FCF772B908B5054B01211878FFF7E8FFA9
:10A9F40018B1BDE80840FCF767B908BD84260020FB
:10AA040010B50446034800F073FA2046BDE8104030
:10AA1400FCF75AB9A49C03001046FFF7A1BF00003D
:10AA240010B5A8B04C23ADF80430274B03933C2257
:10AA3400172300210AA8ADF80830244C02F0BEF90F
:10AA44004FF4C063ADF82A303C2201AB002119A8B1
:10AA5400139302F0B3F922460AA852F8041B00F03B
:10AA6400D8FA08B1FCF730F9194AA16819A800F01E
:10AA7400D0FA08B1FCF728F91822002104A802F042
:10AA84009DF901238DF81030002305934FF4807352
:10AA9400ADF824309DF827300C490E4843F01003DC
:10AAA4008DF827300C4B1B680693642B34BF4FF48E
:10AAB400FA63002304AAADF81C30FFF77FFF08B146
:10AAC400FCF702F928B010BD5C2600207426002093
:10AAD4008026002084260020582600200388212B6D
:10AAE40037B5044657D023D8112B41D003D8102BA7
:10AAF40030D003B030BD132B45D0202BF9D12F4DCE
:10AB04002B78002BF5D106222D490B3002F088F862
:10AB14000028EED12B4B1878FFF754FF01232B703C
:10AB2400294B40221A60FFF77BFFFFF75BFFE0E74A
:10AB34003B2B0AD005D8262BDBD1204B00221A70E0
:10AB44001DE0522B32D0562BD3D11321A088FFF70E
:10AB54003BFF08E0194B81881C4800221A701C4BEB
:10AB6400198000F0E7FF0028C3D0FCF7ADF8C0E778
:10AB7400124B00221A70164B4FF6FF721A80124BBA
:10AB84004FF44872CEE7124800231A468521008804
:10AB9400FFF720FFE7E70F4800F0AAF9002301A917
:10ABA400A088ADF80430FFF717FFDCE7084800235E
:10ABB4001A4619460088FFF711FFD4E768EA002017
:10ABC400E5EA00208426002058260020D8EA002048
:10ABD40086260020909C030008B503784BB9054BEA
:10ABE4003B211888FFF7F0FE18B1BDE80840FCF7D8
:10ABF4006BB808BD8626002000B589B0FCF7BAFA08
:10AC040008B1FCF761F8FDF7E7F808B1FCF75CF868
:10AC14000020FDF7FDF8FCF78DFE08B1FCF754F8B1
:10AC240001F0ACF808B1FCF74FF8002301A90120AA
:10AC3400019301F02BF908B1FCF746F801A801F0E3
:10AC4400F5F908B1FCF740F80822002101A802F048
:10AC5400B5F8314A314B01A8CDE90123FFF7B8FE1D
:10AC640008B1FCF731F800212D4800F05BFE08B173
:10AC7400FCF72AF80023CDE901336946294B2A4819
:10AC8400009300F045FF08B1FCF71EF8274B284855
:10AC9400019301A900F0D6FF08B1FCF715F8FFF7FE
:10ACA400BFFE1C22002101A802F088F800234FF403
:10ACB4002032CDE90132ADF812304FF440328DF834
:10ACC40014301C4B0392069303221B4B8DF8102067
:10ACD40001A8079300F066FC08B1FBF7F5FFFEF747
:10ACE400A5F9FFF7C7FDFFF727FE144B08221978D3
:10ACF4000320FFF76BFE082219780120FFF766FE98
:10AD0400FFF770FE0E48FFF757FEFBF731FD0028F2
:10AD1400FBD1FCF725FEF8E75000A00003009001EA
:10AD2400A8EA0020E5A90200D8EA00201DAA020032
:10AD3400BCEA0020DDAB020005AA02008426002044
:10AD4400E4EA00200369C1688B429DBF8268D2187F
:10AD540002F1FF3203F1FF3394BF501A581A7047BF
:10AD64002DE9F041D0E9027405463E1B4068964245
:10AD740020448846144404D901F0F7FFEC60BDE890
:10AD8400F0813246E41B01F0F0FF224608EB060195
:10AD94006868F1E72DE9F843C56806468946174611
:10ADA4004FF000083469B3687068A54228BFE418FE
:10ADB400013C621B5C1BBC4228BF3C46944228BF3A
:10ADC400144649462844224601F0CFFFB36825447F
:10ADD400AB4208BF00253F1BA044A144F560E1D16C
:10ADE4004046BDE8F883000010B5114C114AA26139
:10ADF4000223C4E90433104BE361A2644FF40073EB
:10AE04000E4A2362E264002310220D49A362E01D6E
:10AE14006362E362A3656365E365226502F001F89A
:10AE24000849204601F0FDFF2023A37110BD00BF97
:10AE3400ECEA0020B29C030074EB002064EB0020D9
:10AE4400BB9C0300BF9C0300F8B5184C182300FBFF
:10AE5400033503FB00402544C46A012C0F46164603
:10AE640011D024B1022C1BD000242046F8BD284662
:10AE7400FFF768FFB042F8D3324639462846FFF759
:10AE84006FFF3446F1E72846FFF75CFF86423446FD
:10AE940028BF0446224639462846FFF761FFE4E707
:10AEA4002846BDE8F840FFF775BF00BFECEA002074
:10AEB40073B50E4B1B7804460D4616460BB9FFF7C7
:10AEC40093FF00230DF107008DF80730FCF7EAF932
:10AED400324629462046FFF7B7FF04469DF807008F
:10AEE400FCF704FA204602B070BD00BFECEA002073
:10AEF4000FB410B5A2B024AB802153F8042B0193F6
:10AF040002A801F024FF802804460ADD802202A959
:10AF14000020FFF7CDFF204622B0BDE8104004B06A
:10AF240070470028F7DD0246F1E76DDF704779DFEF
:10AF340070477DDF704764DF70472DE9F74F0C9C45
:10AF4400BDF834B02788002580468A4691462E46AF
:10AF5400B8F80020B2420BDC35B12288013AD21B8A
:10AF640092B2FF2A39D8DA55002003B0BDE8F08F39
:10AF7400D8F8042052F82600019000220DF10301B4
:10AF840001A8FFF7D8FF0028EFD19DF803204A4518
:10AF940021D12288002D14BF0020022002EB0901D8
:10AFA4000144594519DC3DB9013292B2228003F8BB
:10AFB40002A022880132228022880DF103011A4462
:10AFC40001A8FFF7B8FF0028CFD121889DF80320FE
:10AFD4000A44228001250136BAE70C20C5E72DE991
:10AFE400F341089CBDF824501746CDE900450222E0
:10AFF4000646FFF7A2FF48B9102239463046CDE98C
:10B00400084502B0BDE8F041FFF797BF02B0BDE8C4
:10B01400F0812DE9F04F00231688138090F82D302D
:10B0240085B007460D46144653B3082E01D80C20AC
:10B0340028E102A8FFF779FF002840F02381138854
:10B044000822CA54238801339BB21B222380CA548A
:10B054002088013080B2208006220DF109012844A5
:10B0640001F083FE23889DF8082006339BB212F07A
:10B07400FE0218BF01222380EA542388013323806F
:10B08400BB78FBB123880433B342D0D802A8FFF7BE
:10B094004EFF002840F0F68023880322EA542388D8
:10B0A40001339BB219222380EA542388BDF8082077
:10B0B40001339BB2E9182380EA54120A4A702388A8
:10B0C40002332380FA789AB12388D91CB142AED8CE
:10B0D4000221E954238801339BB201212380E954DE
:10B0E40023880B449BB22380EA5423880B44238097
:10B0F4007A68AAB12388D91CB14298D8022192F95E
:10B104000020E954238801339BB20A212380E954A7
:10B11400238801339BB22380EA542388013323809C
:10B124003B89002B40F0A2803B8A5BB1CDE900460D
:10B134002B460722032107F11000FFF750FF0028D8
:10B1440040F0A0803B8B5BB1CDE900462B46152235
:10B15400142107F11800FFF742FF002840F0928005
:10B164003A6A002A40F09180D7F82480B8F1000FA1
:10B1740030D0B8F804302188981C8A1C0244B242AA
:10B184003FF655AFFE283FF652AF03336B54238886
:10B1940001339BB2FF222380EA54238801339BB2FC
:10B1A4002380B8F80020EA54E918120A4A7020886B
:10B1B400023080B22080B8F804205AB1D8F80810C0
:10B1C40000296CD0284401F0D0FD2388B8F804206D
:10B1D4001344238097F82C30002B40F09B80387860
:10B1E40000284FD03B88012B59D0228802F1020C51
:10B1F400B4453FF61CAF012805D17B7802331344D4
:10B204009E42FFF414AF023EB61AB6B202A905EB91
:10B214000C00ADF80860FFF78CFE98BB3978BDF8D8
:10B224000820022900F0BB807B78934202D3B2420B
:10B2340040F2B380012940F0B4809BB29E42C0F03A
:10B24400B080ADF808300821BDF80830FE2B3FF679
:10B25400EEAE22880133AB542288013292B22280AE
:10B26400A95422881344238000200BE0CDE9004632
:10B274002B460622022107F10800FFF7B0FE002842
:10B284003FF452AF05B0BDE8F08FB4F800C00CF144
:10B294000603B3423FF6CBAE1188052901D8072037
:10B2A400F0E76FF4486E01EB0E039BB24FF27D3E64
:10B2B4007345F4D95388052BF1D96FF448601818F5
:10B2C40080B27045EBD94FF6FF70814203D08342C0
:10B2D40001D09942E3D8052305F80C3023880133C3
:10B2E4009BB212212380E954238801339BB223802B
:10B2F4001188E954E818090A4170238802339BB283
:10B3040023805288EA54E918120A4A7023880233C7
:10B31400238029E7BB6A002BC1D04FF000094FF00E
:10B324000C0A4FF0160B97F82C305FFA89F293420F
:10B334007FF655AFB96A0AFB02F201EB0208B8F8CE
:10B344000430981CFE283FF672AE208803332B5439
:10B35400238801339BB2238005F803B0238801338B
:10B364009BB223808A5AEA54E918120A4A70208848
:10B37400023080B22080B8F804205AB1D8F80810FE
:10B3840000298CD0284401F0F0FC2388B8F804206C
:10B394001344238009F10109C5E7092154E7B242A6
:10B3A400FBD9ADF808604EE775DF704776DF70476C
:10B3B4007ADF70477BDF7047034B1A8882420CBFE9
:10B3C40018460020704700BF90ED0020024B9B6997
:10B3D40003B11847704700BF74ED002037B585B23C
:10B3E4002846FFF7E9FF034670B1164C017A227B29
:10B3F40091420BD200F10A012846FFF7D5FFE8B1CC
:10B40400112801D0FFF7E2FF03B030BD237C0022F6
:10B41400027243B13B212846FFF7C8FF30F008030E
:10B4240001D0FFF7D3FF6369002BEDD000228DF824
:10B434000420ADF8065001A89847E5E71A7A0132CE
:10B444001A72E1E774ED002013B50B46497A0F4CEC
:10B45400024669B9D4E901101C7A002C18BF0146D0
:10B464005868FBF7C9FE08B1FFF7B0FF02B010BD82
:10B47400002119726369002BF8D00121ADF8060090
:10B484008DF8041001A89847F0E700BF74ED002080
:10B494004B8802889A4213D842889A4210D38088F3
:10B4A4008A8840F2F313984294BF031AC31A934252
:10B4B40006D800F2F310904234BF002001207047F8
:10B4C400002070470388112B70B5014648D002D87C
:10B4D400102B1ED070BD122B52D0502BFAD12F4BF3
:10B4E400C288DB899A42F5D1038A022BF2D186887D
:10B4F4003046FFF761FF05460028EBD001F112004A
:10B5040000F021F930BB6868FBF7BCFE0028E1D0ED
:10B5140009E0C37B012BDDD14FF6FF70FFF74CFF31
:10B52400054620B90420BDE87040FFF74FBF1C4A10
:10B534008E880680002303721368C5F80A300A3027
:10B54400536843601031FFF7A3FF144B6872DB8923
:10B55400002BBFD129463046BDE87040FFF774BFC9
:10B564008088FFF729FF04460028B3D04068FBF722
:10B5740089FE08B1FFF72AFF4FF6FF732380A9E77E
:10B5840086883046FFF718FF05460028A2D0083108
:10B594000A30FFF77DFF6872DCE700BF74ED00201E
:10B5A400A4ED0020F8B5064648B305460FCD154F67
:10B5B4003C460FC495E8070084E807003068124B46
:10B5C4003B60B0B1FFF7F4FEC0B931680A681A6095
:10B5D4004A685A600D480E4A4FF6FF7303800D4BBC
:10B5E40040F8043F0021FBF7F5FD002818BF0320B5
:10B5F40004E01846FFF7DEFE0028EBD0F8BD0E206D
:10B60400FCE700BF74ED0020A4ED002090ED0020C5
:10B61400E1B30200ACED002073B50191019C064634
:10B624006CB100252C46294601A8FBF788FE18B109
:10B6340006EB440301349D800135142DF3D13046CB
:10B64400346002B070BD00002DE9F047038884889F
:10B65400112B8CB006463CD01A2B3FD0102B17D19F
:10B66400274DAB68DB43009369686846FBF790FE9F
:10B67400009901A8FFF7D0FF0DF108094FF0000869
:10B68400019B984507D3132C13D90420FBF71CFB0B
:10B694000CB0BDE8F08739F802AB002701375146FA
:10B6A40005EB8700FBF741FE1D2FF7D108F10108D8
:10B6B400E6E721461348FBF72FFE21461248FBF725
:10B6C4002BFEF37B012BE3D010482146FBF724FE2D
:10B6D400DEE70C482146FBF728FED9E7057A0C483B
:10B6E4002D09012D214606D9FBF716FE022D214610
:10B6F4000848F0D0EAE7FBF718FE21460548EAE7D8
:10B70400CCED0020D4ED0020D0ED0020D8ED0020B9
:10B71400DCED0020E0ED0020AADF704700230138B3
:10B724000B70042806D8DFE800F00306080A0C00B2
:10B7340011230B7070472123FBE73123F9E7122310
:10B74400F7E72223F5E7007800F001007047F0B531
:10B754008B7891B0002B0C4608BF01238DF80E3076
:10B7640005460B88ADF80C300021164668460322C6
:10B7740001F024FB6946607CFFF7D0FF0DF1010165
:10B78400A07CFFF7CBFF9DF80230E27B62F3C3039A
:10B79400227C62F30413227B62F30003227D002ADD
:10B7A40014BF0222012262F3420300211C2209A8D1
:10B7B4008DF8023001F002FB637B13F0300F15D0DB
:10B7C40002AF03220021384601F0F8FA0DF1090115
:10B7D400E07CFFF7A3FF11238DF808309DF80A30B1
:10B7E4000E97012262F342038DF80A30637B8DF8D1
:10B7F40024301422A37B8DF82530002104A801F005
:10B80400DDFA03AB0493A388ADF81C30A368CDF82C
:10B8140014D01BB1E288ADF818200893A369002B5B
:10B824002ED001AF03220021384601F0C7FAA369E4
:10B834001A88ADF82C205A88187BADF82E2039468A
:10B844005A680A920D97FFF769FFA3690DF1050184
:10B85400587BFFF763FFA2699DF80630917A61F384
:10B86400C303D17A61F30413117A927B002A61F342
:10B87400000314BF0222012262F342038DF8063052
:10B88400E36903B10C93334604AA09A92846FFF7D8
:10B8940043FF11B0F0BD90DF7047A5DF7047B5DFFF
:10B8A400704700007FB50023ADF80810ADF80A100A
:10B8B4006A4602A9064603930093ADF80430FFF7E5
:10B8C400EAFF054600B3124B124CE41AE408FCF7F5
:10B8D400A1F8240444F00104034632460E492046EC
:10B8E400FBF7BDF8BDF80020BDF8023052EA0301B1
:10B8F40003D00A492046FBF7B2F8BDF804201AB178
:10B9040007492046FBF7A2F8284604B070BD00BFE3
:10B9140080D60200E8D60200C69C0300109D0300F6
:10B924004F9D030080B14FF06E1303601B2303711E
:10B934006E23C3801723038141F61B320023016168
:10B9440043818281184670470E20704713B5034621
:10B9540080880C46A0B91A88232A00F0A48011D844
:10B96400102A22D0112A51D0A37A4BB1E1880020A9
:10B97400FFF793FF002840F09C804FF480736381AD
:10B9840002B010BD3A2A4AD0552A60D0242AEBD1FD
:10B994001A7A0B694A73002BE6D04DF67A21ADF87A
:10B9A400040000918DF8042079E0DB7B0A790A73A6
:10B9B400012B13D0022B14D0E18823898B4205D2AA
:10B9C4000020FFF76AFF70B90123E372217B637BD8
:10B9D4008B42C9D20020FFF765FFC5E70B88E380DF
:10B9E400EAE74B88FBE7112802D10123A372EDE7B4
:10B9F400FCF710F8374A384B38499B1ADB081B040C
:10BA0400024643F00100FBF721F8DFE76E23CB8009
:10BA140017230B8141F61B3348818B81A4E75B8993
:10BA2400CA88934228BF1346172B0A6938BF1723C5
:10BA34000B814AB1C97A39B140F677210091ADF84A
:10BA44000430694620469047002363818CE7DB88F5
:10BA5400C988A072172B38BF17238B4228BF0B4607
:10BA64002381FFF71CFF60B1FBF7D4FF194A1A4B7F
:10BA74001B499B1ADB081B04024643F00100FAF73A
:10BA8400E5FFE37A002B7FF46FAF2369002B3FF4CB
:10BA94006BAF40F6772200922289ADF80420694604
:10BAA4002046984760E7197A237B994228BF1946B4
:10BAB40091E711283FF464AFFBF7ACFF054A064B4E
:10BAC40006499B1ADB081B04024643F00100FAF7FF
